{
  "_format": "hh-sol-artifact-1",
  "contractName": "TodoList",
  "sourceName": "contracts/TodoList.sol",
  "abi": [
    {
      "inputs": [
        {
          "internalType": "string",
          "name": "_title",
          "type": "string"
        },
        {
          "internalType": "string",
          "name": "_description",
          "type": "string"
        }
      ],
      "name": "createTodo",
      "outputs": [],
      "stateMutability": "nonpayable",
      "type": "function"
    },
    {
      "inputs": [
        {
          "internalType": "uint256",
          "name": "_id",
          "type": "uint256"
        }
      ],
      "name": "deleteTodo",
      "outputs": [],
      "stateMutability": "nonpayable",
      "type": "function"
    },
    {
      "inputs": [],
      "name": "getTodoCount",
      "outputs": [
        {
          "internalType": "uint256",
          "name": "",
          "type": "uint256"
        }
      ],
      "stateMutability": "view",
      "type": "function"
    },
    {
      "inputs": [],
      "name": "nextId",
      "outputs": [
        {
          "internalType": "uint256",
          "name": "",
          "type": "uint256"
        }
      ],
      "stateMutability": "view",
      "type": "function"
    },
    {
      "inputs": [
        {
          "internalType": "uint256",
          "name": "",
          "type": "uint256"
        }
      ],
      "name": "todos",
      "outputs": [
        {
          "internalType": "uint256",
          "name": "id",
          "type": "uint256"
        },
        {
          "internalType": "string",
          "name": "title",
          "type": "string"
        },
        {
          "internalType": "string",
          "name": "description",
          "type": "string"
        },
        {
          "internalType": "bool",
          "name": "completed",
          "type": "bool"
        }
      ],
      "stateMutability": "view",
      "type": "function"
    },
    {
      "inputs": [
        {
          "internalType": "uint256",
          "name": "_id",
          "type": "uint256"
        }
      ],
      "name": "toggleCompleted",
      "outputs": [],
      "stateMutability": "nonpayable",
      "type": "function"
    },
    {
      "inputs": [
        {
          "internalType": "uint256",
          "name": "_id",
          "type": "uint256"
        },
        {
          "internalType": "string",
          "name": "_title",
          "type": "string"
        },
        {
          "internalType": "string",
          "name": "_description",
          "type": "string"
        },
        {
          "internalType": "bool",
          "name": "_completed",
          "type": "bool"
        }
      ],
      "name": "updateTodo",
      "outputs": [],
      "stateMutability": "nonpayable",
      "type": "function"
    }
  ],
  "bytecode": "0x608060405234801561001057600080fd5b50610f18806100206000396000f3fe608060405234801561001057600080fd5b506004361061007d5760003560e01c806361b8ce8c1161005b57806361b8ce8c146100d85780636e3c6738146100f6578063bc8bc2b414610112578063f92900ea146101455761007d565b8063104a7cd8146100825780633380b99f146100a0578063455f5024146100bc575b600080fd5b61008a610161565b60405161009791906106b3565b60405180910390f35b6100ba60048036038101906100b5919061073d565b61016d565b005b6100d660048036038101906100d191906107ea565b6102bc565b005b6100e0610376565b6040516100ed91906106b3565b60405180910390f35b610110600480360381019061010b91906107ea565b61037c565b005b61012c600480360381019061012791906107ea565b610427565b60405161013c94939291906108c2565b60405180910390f35b61015f600480360381019061015a9190610941565b610584565b005b60008080549050905090565b60006040518060800160405280600154815260200186868080601f016020809104026020016040519081016040528093929190818152602001838380828437600081840152601f19601f82011690508083019250505050505050815260200184848080601f016020809104026020016040519081016040528093929190818152602001838380828437600081840152601f19601f8201169050808301925050505050505081526020016000151581525090806001815401808255809150506001900390600052602060002090600402016000909190919091506000820151816000015560208201518160010190816102659190610c23565b50604082015181600201908161027b9190610c23565b5060608201518160030160006101000a81548160ff0219169083151502179055505050600160008154809291906102b190610d24565b919050555050505050565b6000805490508110610303576040517f08c379a00000000000000000000000000000000000000000000000000000000081526004016102fa90610db8565b60405180910390fd5b6000818154811061031757610316610dd8565b5b906000526020600020906004020160030160009054906101000a900460ff16156000828154811061034b5761034a610dd8565b5b906000526020600020906004020160030160006101000a81548160ff02191690831515021790555050565b60015481565b60008054905081106103c3576040517f08c379a00000000000000000000000000000000000000000000000000000000081526004016103ba90610db8565b60405180910390fd5b600081815481106103d7576103d6610dd8565b5b90600052602060002090600402016000808201600090556001820160006103fe919061063d565b60028201600061040e919061063d565b6003820160006101000a81549060ff0219169055505050565b6000818154811061043757600080fd5b906000526020600020906004020160009150905080600001549080600101805461046090610a46565b80601f016020809104026020016040519081016040528092919081815260200182805461048c90610a46565b80156104d95780601f106104ae576101008083540402835291602001916104d9565b820191906000526020600020905b8154815290600101906020018083116104bc57829003601f168201915b5050505050908060020180546104ee90610a46565b80601f016020809104026020016040519081016040528092919081815260200182805461051a90610a46565b80156105675780601f1061053c57610100808354040283529160200191610567565b820191906000526020600020905b81548152906001019060200180831161054a57829003601f168201915b5050505050908060030160009054906101000a900460ff16905084565b60008054905086106105cb576040517f08c379a00000000000000000000000000000000000000000000000000000000081526004016105c290610db8565b60405180910390fd5b60008087815481106105e0576105df610dd8565b5b906000526020600020906004020190508585826001019182610603929190610e12565b508383826002019182610617929190610e12565b50818160030160006101000a81548160ff02191690831515021790555050505050505050565b50805461064990610a46565b6000825580601f1061065b575061067a565b601f016020900490600052602060002090810190610679919061067d565b5b50565b5b8082111561069657600081600090555060010161067e565b5090565b6000819050919050565b6106ad8161069a565b82525050565b60006020820190506106c860008301846106a4565b92915050565b600080fd5b600080fd5b600080fd5b600080fd5b600080fd5b60008083601f8401126106fd576106fc6106d8565b5b8235905067ffffffffffffffff81111561071a576107196106dd565b5b602083019150836001820283011115610736576107356106e2565b5b9250929050565b60008060008060408587031215610757576107566106ce565b5b600085013567ffffffffffffffff811115610775576107746106d3565b5b610781878288016106e7565b9450945050602085013567ffffffffffffffff8111156107a4576107a36106d3565b5b6107b0878288016106e7565b925092505092959194509250565b6107c78161069a565b81146107d257600080fd5b50565b6000813590506107e4816107be565b92915050565b600060208284031215610800576107ff6106ce565b5b600061080e848285016107d5565b91505092915050565b600081519050919050565b600082825260208201905092915050565b60005b83811015610851578082015181840152602081019050610836565b60008484015250505050565b6000601f19601f8301169050919050565b600061087982610817565b6108838185610822565b9350610893818560208601610833565b61089c8161085d565b840191505092915050565b60008115159050919050565b6108bc816108a7565b82525050565b60006080820190506108d760008301876106a4565b81810360208301526108e9818661086e565b905081810360408301526108fd818561086e565b905061090c60608301846108b3565b95945050505050565b61091e816108a7565b811461092957600080fd5b50565b60008135905061093b81610915565b92915050565b6000806000806000806080878903121561095e5761095d6106ce565b5b600061096c89828a016107d5565b965050602087013567ffffffffffffffff81111561098d5761098c6106d3565b5b61099989828a016106e7565b9550955050604087013567ffffffffffffffff8111156109bc576109bb6106d3565b5b6109c889828a016106e7565b935093505060606109db89828a0161092c565b9150509295509295509295565b7f4e487b7100000000000000000000000000000000000000000000000000000000600052604160045260246000fd5b7f4e487b7100000000000000000000000000000000000000000000000000000000600052602260045260246000fd5b60006002820490506001821680610a5e57607f821691505b602082108103610a7157610a70610a17565b5b50919050565b60008190508160005260206000209050919050565b60006020601f8301049050919050565b600082821b905092915050565b600060088302610ad97fffffffffffffffffffffffffffffffffffffffffffffffffffffffffffffffff82610a9c565b610ae38683610a9c565b95508019841693508086168417925050509392505050565b6000819050919050565b6000610b20610b1b610b168461069a565b610afb565b61069a565b9050919050565b6000819050919050565b610b3a83610b05565b610b4e610b4682610b27565b848454610aa9565b825550505050565b600090565b610b63610b56565b610b6e818484610b31565b505050565b5b81811015610b9257610b87600082610b5b565b600181019050610b74565b5050565b601f821115610bd757610ba881610a77565b610bb184610a8c565b81016020851015610bc0578190505b610bd4610bcc85610a8c565b830182610b73565b50505b505050565b600082821c905092915050565b6000610bfa60001984600802610bdc565b1980831691505092915050565b6000610c138383610be9565b9150826002028217905092915050565b610c2c82610817565b67ffffffffffffffff811115610c4557610c446109e8565b5b610c4f8254610a46565b610c5a828285610b96565b600060209050601f831160018114610c8d5760008415610c7b578287015190505b610c858582610c07565b865550610ced565b601f198416610c9b86610a77565b60005b82811015610cc357848901518255600182019150602085019450602081019050610c9e565b86831015610ce05784890151610cdc601f891682610be9565b8355505b6001600288020188555050505b505050505050565b7f4e487b7100000000000000000000000000000000000000000000000000000000600052601160045260246000fd5b6000610d2f8261069a565b91507fffffffffffffffffffffffffffffffffffffffffffffffffffffffffffffffff8203610d6157610d60610cf5565b5b600182019050919050565b7f546f646f20646f6573206e6f7420657869737400000000000000000000000000600082015250565b6000610da2601383610822565b9150610dad82610d6c565b602082019050919050565b60006020820190508181036000830152610dd181610d95565b9050919050565b7f4e487b7100000000000000000000000000000000000000000000000000000000600052603260045260246000fd5b600082905092915050565b610e1c8383610e07565b67ffffffffffffffff811115610e3557610e346109e8565b5b610e3f8254610a46565b610e4a828285610b96565b6000601f831160018114610e795760008415610e67578287013590505b610e718582610c07565b865550610ed9565b601f198416610e8786610a77565b60005b82811015610eaf57848901358255600182019150602085019450602081019050610e8a565b86831015610ecc5784890135610ec8601f891682610be9565b8355505b6001600288020188555050505b5050505050505056fea2646970667358221220e4b239ffa092ca722f0716f541359b1be3d252c424e3ba0f90208b27c577ea4a64736f6c63430008130033",
  "linkReferences": {},
  "deployedLinkReferences": {}
}